{
  "contractName": "Crowdsale",
  "abi": [
    {
      "constant": false,
      "inputs": [
        {
          "name": "_newDate",
          "type": "uint256"
        }
      ],
      "name": "changeIcoFinish",
      "outputs": [],
      "payable": false,
      "stateMutability": "nonpayable",
      "type": "function"
    },
    {
      "constant": true,
      "inputs": [
        {
          "name": "_time",
          "type": "uint256"
        }
      ],
      "name": "isIco",
      "outputs": [
        {
          "name": "",
          "type": "bool"
        }
      ],
      "payable": false,
      "stateMutability": "view",
      "type": "function"
    },
    {
      "constant": true,
      "inputs": [
        {
          "name": "_value",
          "type": "uint256"
        },
        {
          "name": "_time",
          "type": "uint256"
        }
      ],
      "name": "etherToTokens",
      "outputs": [
        {
          "name": "res",
          "type": "uint256"
        }
      ],
      "payable": false,
      "stateMutability": "view",
      "type": "function"
    },
    {
      "constant": false,
      "inputs": [
        {
          "name": "_newSupport",
          "type": "address"
        }
      ],
      "name": "transferTechSupport",
      "outputs": [],
      "payable": false,
      "stateMutability": "nonpayable",
      "type": "function"
    },
    {
      "constant": true,
      "inputs": [],
      "name": "tokensSold",
      "outputs": [
        {
          "name": "",
          "type": "uint256"
        }
      ],
      "payable": false,
      "stateMutability": "view",
      "type": "function"
    },
    {
      "constant": false,
      "inputs": [],
      "name": "acceptOwnership",
      "outputs": [],
      "payable": false,
      "stateMutability": "nonpayable",
      "type": "function"
    },
    {
      "constant": true,
      "inputs": [],
      "name": "icoStart",
      "outputs": [
        {
          "name": "",
          "type": "uint256"
        }
      ],
      "payable": false,
      "stateMutability": "view",
      "type": "function"
    },
    {
      "constant": true,
      "inputs": [],
      "name": "owner",
      "outputs": [
        {
          "name": "",
          "type": "address"
        }
      ],
      "payable": false,
      "stateMutability": "view",
      "type": "function"
    },
    {
      "constant": false,
      "inputs": [],
      "name": "acceptSupport",
      "outputs": [],
      "payable": false,
      "stateMutability": "nonpayable",
      "type": "function"
    },
    {
      "constant": true,
      "inputs": [
        {
          "name": "_time",
          "type": "uint256"
        }
      ],
      "name": "timeBasedBonus",
      "outputs": [
        {
          "name": "res",
          "type": "uint256"
        }
      ],
      "payable": false,
      "stateMutability": "view",
      "type": "function"
    },
    {
      "constant": true,
      "inputs": [],
      "name": "icoFinish",
      "outputs": [
        {
          "name": "",
          "type": "uint256"
        }
      ],
      "payable": false,
      "stateMutability": "view",
      "type": "function"
    },
    {
      "constant": true,
      "inputs": [],
      "name": "ethCollected",
      "outputs": [
        {
          "name": "",
          "type": "uint256"
        }
      ],
      "payable": false,
      "stateMutability": "view",
      "type": "function"
    },
    {
      "constant": true,
      "inputs": [],
      "name": "techSupport",
      "outputs": [
        {
          "name": "",
          "type": "address"
        }
      ],
      "payable": false,
      "stateMutability": "view",
      "type": "function"
    },
    {
      "constant": true,
      "inputs": [],
      "name": "newOwner",
      "outputs": [
        {
          "name": "",
          "type": "address"
        }
      ],
      "payable": false,
      "stateMutability": "view",
      "type": "function"
    },
    {
      "constant": true,
      "inputs": [
        {
          "name": "_value",
          "type": "uint256"
        }
      ],
      "name": "volumeBasedBonus",
      "outputs": [
        {
          "name": "res",
          "type": "uint256"
        }
      ],
      "payable": false,
      "stateMutability": "pure",
      "type": "function"
    },
    {
      "constant": true,
      "inputs": [],
      "name": "newTechSupport",
      "outputs": [
        {
          "name": "",
          "type": "address"
        }
      ],
      "payable": false,
      "stateMutability": "view",
      "type": "function"
    },
    {
      "constant": false,
      "inputs": [],
      "name": "endIco",
      "outputs": [],
      "payable": false,
      "stateMutability": "nonpayable",
      "type": "function"
    },
    {
      "constant": false,
      "inputs": [
        {
          "name": "_newOwner",
          "type": "address"
        }
      ],
      "name": "transferOwnership",
      "outputs": [],
      "payable": false,
      "stateMutability": "nonpayable",
      "type": "function"
    },
    {
      "constant": true,
      "inputs": [],
      "name": "token",
      "outputs": [
        {
          "name": "",
          "type": "address"
        }
      ],
      "payable": false,
      "stateMutability": "view",
      "type": "function"
    },
    {
      "inputs": [
        {
          "name": "_tokenAddress",
          "type": "address"
        }
      ],
      "payable": false,
      "stateMutability": "nonpayable",
      "type": "constructor"
    },
    {
      "payable": true,
      "stateMutability": "payable",
      "type": "fallback"
    }
  ],
  "bytecode": "0x6060604052600360045573bbbbaaedaa53eacf57213b95cc023f668edba361600660006101000a81548173ffffffffffffffffffffffffffffffffffffffff021916908373ffffffffffffffffffffffffffffffffffffffff16021790555073aeb0920be125eb72e071b1357a5c95b52d8afc65600760006101000a81548173ffffffffffffffffffffffffffffffffffffffff021916908373ffffffffffffffffffffffffffffffffffffffff160217905550738c0f5211a006bb28d4c694dc76632901664230f9600860006101000a81548173ffffffffffffffffffffffffffffffffffffffff021916908373ffffffffffffffffffffffffffffffffffffffff16021790555073112f94de76c8df26786671bee2ccc75bd9613a1b600960006101000a81548173ffffffffffffffffffffffffffffffffffffffff021916908373ffffffffffffffffffffffffffffffffffffffff1602179055506000600a556000600b55620001b062000191600454600a620004be6401000000000262000fd4179091906401000000009004565b6032620004f26401000000000262001005179091906401000000009004565b600c5562000200620001dd600454600a620004be6401000000000262000fd4179091906401000000009004565b64e8d4a51000620004f26401000000000262001005179091906401000000009004565b600d556000600e55635aaaecdf600f5534156200021c57600080fd5b604051602080620015c483398101604052808051906020019091905050336000806101000a81548173ffffffffffffffffffffffffffffffffffffffff021916908373ffffffffffffffffffffffffffffffffffffffff16021790555080600560006101000a81548173ffffffffffffffffffffffffffffffffffffffff021916908373ffffffffffffffffffffffffffffffffffffffff16021790555033600260006101000a81548173ffffffffffffffffffffffffffffffffffffffff021916908373ffffffffffffffffffffffffffffffffffffffff160217905550600560009054906101000a900473ffffffffffffffffffffffffffffffffffffffff1673ffffffffffffffffffffffffffffffffffffffff16636596cff3306040518263ffffffff167c0100000000000000000000000000000000000000000000000000000000028152600401808273ffffffffffffffffffffffffffffffffffffffff1673ffffffffffffffffffffffffffffffffffffffff168152602001915050600060405180830381600087803b1515620003b857600080fd5b6102c65a03f11515620003ca57600080fd5b505050600560009054906101000a900473ffffffffffffffffffffffffffffffffffffffff1673ffffffffffffffffffffffffffffffffffffffff1663893d20e86000604051602001526040518163ffffffff167c0100000000000000000000000000000000000000000000000000000000028152600401602060405180830381600087803b15156200045c57600080fd5b6102c65a03f115156200046e57600080fd5b505050604051805190506000806101000a81548173ffffffffffffffffffffffffffffffffffffffff021916908373ffffffffffffffffffffffffffffffffffffffff160217905550506200053d565b6000806000831415620004d55760019150620004eb565b82840a9050838110151515620004e757fe5b8091505b5092915050565b6000806000841480620005055750600083145b1562000515576000915062000536565b82840290508284828115156200052757fe5b041415156200053257fe5b8091505b5092915050565b611077806200054d6000396000f300606060405260043610610106576000357c0100000000000000000000000000000000000000000000000000000000900463ffffffff16806208f8df146101325780630a1e71de146101555780630fa95aee146101905780632184fe2c146101d0578063518ab2a81461020957806379ba509714610232578063827037db146102475780638da5cb5b14610270578063944126f4146102c557806397aaa73c146102da578063b333ce0d14610311578063bee2e1341461033a578063d459654a14610363578063d4ee1d90146103b8578063da9770381461040d578063e3d1359214610444578063e657807b14610499578063f2fde38b146104ae578063fc0c546a146104e7575b61010f4261053c565b151561011a57600080fd5b61012533344261056a565b151561013057600080fd5b005b341561013d57600080fd5b61015360048080359060200190919050506107a2565b005b341561016057600080fd5b610176600480803590602001909190505061053c565b604051808215151515815260200191505060405180910390f35b341561019b57600080fd5b6101ba6004808035906020019091908035906020019091905050610807565b6040518082815260200191505060405180910390f35b34156101db57600080fd5b610207600480803573ffffffffffffffffffffffffffffffffffffffff169060200190919050506108a0565b005b341561021457600080fd5b61021c610997565b6040518082815260200191505060405180910390f35b341561023d57600080fd5b61024561099d565b005b341561025257600080fd5b61025a610a58565b6040518082815260200191505060405180910390f35b341561027b57600080fd5b610283610a5e565b604051808273ffffffffffffffffffffffffffffffffffffffff1673ffffffffffffffffffffffffffffffffffffffff16815260200191505060405180910390f35b34156102d057600080fd5b6102d8610a83565b005b34156102e557600080fd5b6102fb6004808035906020019091905050610b3f565b6040518082815260200191505060405180910390f35b341561031c57600080fd5b610324610ba9565b6040518082815260200191505060405180910390f35b341561034557600080fd5b61034d610baf565b6040518082815260200191505060405180910390f35b341561036e57600080fd5b610376610bb5565b604051808273ffffffffffffffffffffffffffffffffffffffff1673ffffffffffffffffffffffffffffffffffffffff16815260200191505060405180910390f35b34156103c357600080fd5b6103cb610bdb565b604051808273ffffffffffffffffffffffffffffffffffffffff1673ffffffffffffffffffffffffffffffffffffffff16815260200191505060405180910390f35b341561041857600080fd5b61042e6004808035906020019091905050610c01565b6040518082815260200191505060405180910390f35b341561044f57600080fd5b610457610c73565b604051808273ffffffffffffffffffffffffffffffffffffffff1673ffffffffffffffffffffffffffffffffffffffff16815260200191505060405180910390f35b34156104a457600080fd5b6104ac610c99565b005b34156104b957600080fd5b6104e5600480803573ffffffffffffffffffffffffffffffffffffffff16906020019091905050610eb5565b005b34156104f257600080fd5b6104fa610f90565b604051808273ffffffffffffffffffffffffffffffffffffffff1673ffffffffffffffffffffffffffffffffffffffff16815260200191505060405180910390f35b600081600e54111580156105525750600f548211155b156105605760019050610565565b600090505b919050565b6000806105778484610807565b9050600c54811015151561058a57600080fd5b61059f81600a54610fb690919063ffffffff16565b600a819055506105ba84600b54610fb690919063ffffffff16565b600b81905550600560009054906101000a900473ffffffffffffffffffffffffffffffffffffffff1673ffffffffffffffffffffffffffffffffffffffff16639c1f020a86836040518363ffffffff167c0100000000000000000000000000000000000000000000000000000000028152600401808373ffffffffffffffffffffffffffffffffffffffff1673ffffffffffffffffffffffffffffffffffffffff16815260200182815260200192505050600060405180830381600087803b151561068457600080fd5b6102c65a03f1151561069557600080fd5b505050600660009054906101000a900473ffffffffffffffffffffffffffffffffffffffff1673ffffffffffffffffffffffffffffffffffffffff166108fc60023073ffffffffffffffffffffffffffffffffffffffff16318115156106f757fe5b049081150290604051600060405180830381858888f19350505050151561071d57600080fd5b600760009054906101000a900473ffffffffffffffffffffffffffffffffffffffff1673ffffffffffffffffffffffffffffffffffffffff166108fc3073ffffffffffffffffffffffffffffffffffffffff16319081150290604051600060405180830381858888f19350505050151561079657600080fd5b60019150509392505050565b6000809054906101000a900473ffffffffffffffffffffffffffffffffffffffff1673ffffffffffffffffffffffffffffffffffffffff163373ffffffffffffffffffffffffffffffffffffffff161415156107fd57600080fd5b80600f8190555050565b600080600d54610835610826600454600a610fd490919063ffffffff16565b8661100590919063ffffffff16565b81151561083e57fe5b04915061086461084d85610c01565b61085685610b3f565b610fb690919063ffffffff16565b9050610897606461087e838561100590919063ffffffff16565b81151561088757fe5b0483610fb690919063ffffffff16565b91505092915050565b6000809054906101000a900473ffffffffffffffffffffffffffffffffffffffff1673ffffffffffffffffffffffffffffffffffffffff163373ffffffffffffffffffffffffffffffffffffffff1614806109485750600260009054906101000a900473ffffffffffffffffffffffffffffffffffffffff1673ffffffffffffffffffffffffffffffffffffffff163373ffffffffffffffffffffffffffffffffffffffff16145b151561095357600080fd5b80600360006101000a81548173ffffffffffffffffffffffffffffffffffffffff021916908373ffffffffffffffffffffffffffffffffffffffff16021790555050565b600a5481565b600160009054906101000a900473ffffffffffffffffffffffffffffffffffffffff1673ffffffffffffffffffffffffffffffffffffffff163373ffffffffffffffffffffffffffffffffffffffff161415610a5657600160009054906101000a900473ffffffffffffffffffffffffffffffffffffffff166000806101000a81548173ffffffffffffffffffffffffffffffffffffffff021916908373ffffffffffffffffffffffffffffffffffffffff1602179055505b565b600e5481565b6000809054906101000a900473ffffffffffffffffffffffffffffffffffffffff1681565b600360009054906101000a900473ffffffffffffffffffffffffffffffffffffffff1673ffffffffffffffffffffffffffffffffffffffff163373ffffffffffffffffffffffffffffffffffffffff161415610b3d57600360009054906101000a900473ffffffffffffffffffffffffffffffffffffffff16600260006101000a81548173ffffffffffffffffffffffffffffffffffffffff021916908373ffffffffffffffffffffffffffffffffffffffff1602179055505b565b600080600060149250600e549150600090505b600a811015610b9e5762093a80820184111515610b7157829250610ba2565b60028303925062093a80820191506000831415610b915760009250610ba2565b8080600101915050610b52565b8292505b5050919050565b600f5481565b600b5481565b600260009054906101000a900473ffffffffffffffffffffffffffffffffffffffff1681565b600160009054906101000a900473ffffffffffffffffffffffffffffffffffffffff1681565b6000674563918244f40000821015610c1c5760009050610c6e565b67d02ab486cedc0000821015610c355760029050610c6e565b6801a055690d9db80000821015610c4f5760059050610c6e565b6802b5e3af16b1880000821015610c695760089050610c6e565b600a90505b919050565b600360009054906101000a900473ffffffffffffffffffffffffffffffffffffffff1681565b6000809054906101000a900473ffffffffffffffffffffffffffffffffffffffff1673ffffffffffffffffffffffffffffffffffffffff163373ffffffffffffffffffffffffffffffffffffffff161480610d415750600260009054906101000a900473ffffffffffffffffffffffffffffffffffffffff1673ffffffffffffffffffffffffffffffffffffffff163373ffffffffffffffffffffffffffffffffffffffff16145b1515610d4c57600080fd5b62069780600f540142111515610d6157600080fd5b600560009054906101000a900473ffffffffffffffffffffffffffffffffffffffff1673ffffffffffffffffffffffffffffffffffffffff1663423c3a48600860009054906101000a900473ffffffffffffffffffffffffffffffffffffffff16600960009054906101000a900473ffffffffffffffffffffffffffffffffffffffff16600a546040518463ffffffff167c0100000000000000000000000000000000000000000000000000000000028152600401808473ffffffffffffffffffffffffffffffffffffffff1673ffffffffffffffffffffffffffffffffffffffff1681526020018373ffffffffffffffffffffffffffffffffffffffff1673ffffffffffffffffffffffffffffffffffffffff1681526020018281526020019350505050600060405180830381600087803b1515610e9f57600080fd5b6102c65a03f11515610eb057600080fd5b505050565b6000809054906101000a900473ffffffffffffffffffffffffffffffffffffffff1673ffffffffffffffffffffffffffffffffffffffff163373ffffffffffffffffffffffffffffffffffffffff16141515610f1057600080fd5b600073ffffffffffffffffffffffffffffffffffffffff168173ffffffffffffffffffffffffffffffffffffffff1614151515610f4c57600080fd5b80600160006101000a81548173ffffffffffffffffffffffffffffffffffffffff021916908373ffffffffffffffffffffffffffffffffffffffff16021790555050565b600560009054906101000a900473ffffffffffffffffffffffffffffffffffffffff1681565b6000808284019050838110151515610fca57fe5b8091505092915050565b6000806000831415610fe95760019150610ffe565b82840a9050838110151515610ffa57fe5b8091505b5092915050565b60008060008414806110175750600083145b156110255760009150611044565b828402905082848281151561103657fe5b0414151561104057fe5b8091505b50929150505600a165627a7a72305820cf6921bff6aa71befcb09c5f21f81837c6a8933537757000991c38a7bc1dc1a30029",
  "source": "pragma solidity ^0.4.19;\n\nlibrary SafeMath { //standart library for uint\n  function mul(uint256 a, uint256 b) internal pure returns (uint256) {\n    if (a == 0 || b == 0){\n        return 0;\n    }\n    uint256 c = a * b;\n    assert(c / a == b);\n    return c;\n  }\n\n  function sub(uint256 a, uint256 b) internal pure returns (uint256) {\n    assert(b <= a);\n    return a - b;\n  }\n\n  function add(uint256 a, uint256 b) internal pure returns (uint256) {\n    uint256 c = a + b;\n    assert(c >= a);\n    return c;\n  }\n\n  function pow(uint256 a, uint256 b) internal pure returns (uint256){ //power function\n    if (b == 0){\n      return 1;\n    }\n    uint256 c = a**b;\n    assert (c >= a);\n    return c;\n  }\n}\n\n//standart contract to identify owner\ncontract Ownable {\n\n  address public owner;\n\n  address public newOwner;\n\n  address public techSupport;\n\n  address public newTechSupport;\n\n  modifier onlyOwner() {\n    require(msg.sender == owner);\n    _;\n  }\n\n  modifier onlyTechSupport() {\n    require(msg.sender == techSupport);\n    _;\n  }\n\n  function Ownable() public {\n    owner = msg.sender;\n  }\n\n  function transferOwnership(address _newOwner) public onlyOwner {\n    require(_newOwner != address(0));\n    newOwner = _newOwner;\n  }\n\n  function acceptOwnership() public {\n    if (msg.sender == newOwner) {\n      owner = newOwner;\n    }\n  }\n\n  function transferTechSupport (address _newSupport) public{\n    require (msg.sender == owner || msg.sender == techSupport);\n    newTechSupport = _newSupport;\n  }\n\n  function acceptSupport() public{\n    if(msg.sender == newTechSupport){\n      techSupport = newTechSupport;\n    }\n  }\n\n}\n\n//Abstract Token contract\ncontract BineuroToken{\n  function setCrowdsaleContract (address) public{}\n  function sendCrowdsaleTokens(address, uint256)  public {}\n  function burnTokens(address, address, uint) public {}\n  function getOwner()public view returns(address) {}\n}\n\n//Crowdsale contract\ncontract Crowdsale is Ownable{\n\n  using SafeMath for uint;\n\n  uint decimals = 3;\n  // Token contract address\n  BineuroToken public token;\n\n  // Constructor\n  function Crowdsale(address _tokenAddress) public{\n    token = BineuroToken(_tokenAddress);\n    techSupport = msg.sender;\n    //test parameter\n    // techSupport = 0x8C0F5211A006bB28D4c694dC76632901664230f9;\n    token.setCrowdsaleContract(this);\n    owner = token.getOwner();\n  }\n\n  // for Test\n  //CHANGE IT before deploy into main network\n  \n  address tokenDistribution1 = 0xBBBBaAeDaa53EACF57213b95cc023f668eDbA361;\n  address tokenDistribution2 = 0xaeB0920be125eB72e071B1357A5c95B52D8afc65;\n\n  address teamAddress = 0x8C0F5211A006bB28D4c694dC76632901664230f9;\n  address bountyAddress = 0x112f94de76c8df26786671bee2ccc75bd9613a1b;\n\n  //Crowdsale variables\n  uint public tokensSold = 0;\n  uint public ethCollected = 0;\n\n  // Buy constants\n  uint minDeposit = (uint)(50).mul((uint)(10).pow(decimals));\n\n  uint tokenPrice = (uint)(1000000000000).mul((uint)(10).pow(decimals));\n\n  // Ico constants\n  uint public icoStart = 0; //02/14/2018 1518602400\n  uint public icoFinish = 1521151199; //03/15/2018\n\n  //Owner can change end date\n  function changeIcoFinish (uint _newDate) public onlyOwner {\n    icoFinish = _newDate;\n  }\n  \n  //check is now ICO\n  function isIco(uint _time) public view returns (bool){\n    if((icoStart <= _time) && (_time <= icoFinish)){\n      return true;\n    }\n    return false;\n  }\n\n  function timeBasedBonus(uint _time) public view returns(uint res) {\n    res = 20;\n    uint timeBuffer = icoStart;\n    for (uint i = 0; i<10; i++){\n      if(_time <= timeBuffer + 7 days){\n        return res;\n      }else{\n        res = res - 2;\n        timeBuffer = timeBuffer + 7 days;\n      }\n      if (res == 0){\n        return (0);\n      }\n    }\n    return res;\n  }\n  \n  function volumeBasedBonus(uint _value)public pure returns(uint res) {\n    if(_value < 5000000000000000000){\n      return 0;\n    }\n    if (_value < 15000000000000000000){\n      return 2;\n    }\n    if (_value < 30000000000000000000){\n      return 5;\n    }\n    if (_value < 50000000000000000000){\n      return 8;\n    }\n    return 10;\n  }\n  \n  //fallback function (when investor send ether to contract)\n  function() public payable{\n    require(isIco(now));\n    require(buy(msg.sender,msg.value, now)); //redirect to func buy\n  }\n\n  //function buy Tokens\n  function buy(address _address, uint _value,uint _time) internal returns (bool){\n    uint tokensForSend = etherToTokens(_value,_time);\n\n    require (tokensForSend >= minDeposit);\n\n    tokensSold = tokensSold.add(tokensForSend);\n    ethCollected = ethCollected.add(_value);\n\n    token.sendCrowdsaleTokens(_address,tokensForSend);\n    tokenDistribution1.transfer(this.balance/2);\n    tokenDistribution2.transfer(this.balance);\n\n    return true;\n  }\n\n  //convert ether to tokens (without decimals)\n  function etherToTokens(uint _value, uint _time) public view returns(uint res) {\n    res = _value.mul((uint)(10).pow(decimals))/(tokenPrice);\n    uint bonus = timeBasedBonus(_time).add(volumeBasedBonus(_value));\n    res = res.add(res.mul(bonus)/100);\n  }\n\n  function endIco () public {\n    require(msg.sender == owner || msg.sender == techSupport);\n    require(now > icoFinish + 5 days);\n    token.burnTokens(teamAddress, bountyAddress, tokensSold);\n  }\n  \n}",
  "sourcePath": "/home/romuch/Desktop/BiNeuroTruffle/contracts/BineuroCrowdsale.sol",
  "compiler": {
    "name": "solc",
    "version": "0.4.19+commit.c4cbbb05.Emscripten.clang"
  },
  "schemaVersion": "1.0.1",
  "updatedAt": "2018-02-09T10:33:43.825Z"
}